:020000040800F2
:100000006806002029020008EB020008E702000849
:10001000E9020008E30200081D04000800000000D7
:10002000000000000000000000000000EF020008D7
:10003000E502000800000000ED020008A903000826
:10004000430200084302000843020008430200087C
:10005000430200084302000843020008430200086C
:10006000430200084302000843020008430200085C
:10007000430200084302000843020008430200084C
:10008000430200084302000843020008430200083C
:10009000430200084302000843020008430200082C
:1000A000430200084302000843020008430200081C
:1000B000430200084302000843020008430200080C
:1000C00043020008430200084302000843020008FC
:1000D00043020008430200084302000843020008EC
:1000E00043020008430200084302000843020008DC
:1000F00043020008430200084302000843020008CC
:1001000043020008430200084302000843020008BB
:1001100043020008430200084302000843020008AB
:10012000430200084302000843020008430200089B
:10013000430200084302000843020008430200088B
:10014000430200084302000843020008430200087B
:10015000430200084302000843020008430200086B
:10016000430200084302000843020008430200085B
:10017000430200084302000843020008430200084B
:10018000430200084302000800F002F800F03CF8C7
:100190000AA090E8000C82448344AAF10107DA45E2
:1001A00001D100F031F8AFF2090EBAE80F0013F0F8
:1001B000010F18BFFB1A43F001031847700200003B
:1001C00090020000103A24BF78C878C1FAD85207CC
:1001D00024BF30C830C144BF04680C6070470000C1
:1001E0000023002400250026103A28BF78C1FBD840
:1001F000520728BF30C148BF0B6070471FB500F0E1
:100200000FF91FBD10B510BD00F031F81146FFF712
:10021000F5FF00F004F900F04FF803B4FFF7F2FF28
:1002200003BC00F057F80000094880470948004720
:10023000FEE7FEE7FEE7FEE7FEE7FEE7FEE7FEE796
:10024000FEE7FEE704480549054A064B70470000F3
:10025000AD0300088901000868000020680600203E
:10026000680200206802002070477047704775469A
:1002700000F02CF8AE4605006946534620F0070012
:10028000854618B020B5FFF7DDFFBDE820404FF0F0
:1002900000064FF000074FF000084FF0000B21F070
:1002A0000701AC46ACE8C009ACE8C009ACE8C0093D
:1002B000ACE8C0098D46704710B50446AFF3008026
:1002C0002046BDE81040FFF7A8BF00000048704777
:1002D0000400002001491820ABBEFEE72600020002
:1002E0007047FEE77047FEE7FEE7704770477047CC
:1002F0000CB50022019200922749086840F4803032
:1003000008604FF4A043086800F4003000900198A2
:10031000401C0190009810B901989842F3D10868E8
:10032000800302D50120009000E00092009801288F
:1003300031D119484030026842F0805202601748BB
:10034000026842F4404202601348083002680260CA
:10035000026842F400420260026842F4A052026065
:10036000021F0F4B13600A6842F080720A600A682D
:100370009201FCD50B4A40F205711160016821F031
:1003800003010160016841F0020101600168C1F3ED
:1003900081010229FAD10CBD0038024000700040F2
:1003A00019544007003C024000F02EB810B5124826
:1003B000016841F4700101601048016841F00101D9
:1003C00001600E4A00210832116002680C4B1A408D
:1003D0000260031D0B4A1A60026822F48022026048
:1003E00006480C300160FFF783FF03494FF00060BF
:1003F0008039086010BD000088ED00E00038024040
:10040000FFFFF6FE1030002403480168002902D0E7
:100410000168491E0160704700000020FEE7FEE70A
:100420004FF04070E1EE100A704700004C040008E5
:100430000000002004000000C4010008500400086F
:100440000400002064060000E00100080000000035
:040000050800018965
:00000001FF
